:04000000DCEF38F009
:10711A00F80E93160F0E9512120060C036F061C079
:10712A0037F01200000E366E362A180E3664A0EFBB
:10713A0038F0A2EF38F099EF38F01200000E376EEF
:10714A0097EC38F0372A310E3764AEEF38F0B0EFEB
:10715A0038F0A5EF38F0120036503802F3CF3AF083
:10716A00F4CF3BF036503902F3503B263750380201
:10717A00F3503B263AC036F03BC037F01200000EFF
:10718A00376E000E366E000E396E010E386EB2EC96
:10719A003DF0000E376E010E366E000E396E010E8E
:1071AA00386EB2EC3DF0C280AA0EC06E1200EB0E31
:1071BA00F66E710EF76E000EF86E00EE01F010EE2C
:1071CA0035F00900F5CFEEFFE550E150FAE100EEA7
:1071DA005CF0070EEE6AE806FDE1000178EF3BF08D
:1071EB0054657374652073696E616C2065787420C7
:1071FB0020205465737465204C45447353696E614C
:10720B006C206578742E5465737465204C454473FB
:10721B002073616972366E3650D8A417EF39F019A6
:10722B00EF39F01BEF39F034EF39F0000E376E0009
:10723B000E386E382A180E386426EF39F028EF39DD
:10724B00F01FEF39F0372A310E37642FEF39F03159
:10725B00EF39F01DEF39F0360611EF39F01200C39C
:10726B000EC216375007E1030E365CD8B040EF392B
:10727B00F042EF39F046EF39F03644E846FC0BC2EA
:10728B0012C282C2B24CEF39F04EEF39F047EF39F0
:10729B00F0C4CF38F0396A3850396E386AC3503879
:1072AB0026000E392238C036F039C037F012003EB6
:1072BB006E080EF7EC39F0000EF7EC39F03E50D8B3
:1072CB00B46AEF39F06CEF39F071EF39F07E0E37AD
:1072DB00EC3AF074EF39F0200E37EC3AF00C0EF775
:1072EB00EC39F0000EF7EC39F03E50D8A480EF39B2
:1072FB00F082EF39F087EF39F07E0E37EC3AF08AF7
:10730B00EF39F0200E37EC3AF0120038503910D824
:10731B00B492EF39F094EF39F0B8EF39F0010E3A3F
:10732B006E9CEF39F0D890383639363A2A39AEA1FF
:10733B00EF39F0A3EF39F098EF39F03850365C396C
:10734B00503758D8A0ACEF39F0AEEF39F0B2EF3977
:10735B00F03850365E3950375AD890393238323A85
:10736B002EA3EF39F036C036F037C037F0120000DD
:10737B000E416E000E406E3E503F10D8B4C8EF3930
:10738B00F0CAEF39F0F2EF39F0010E426ED2EF395D
:10739B00F0D8903E363F36422A3FAED7EF39F0D980
:1073AB00EF39F0CEEF39F0D890403641363E503CB5
:1073BB005C3F503D58D8A0E5EF39F0E7EF39F0ECE2
:1073CB00EF39F03E503C5E3F503D5A4080D8903FE5
:1073DB00323E32422ED9EF39F040C03CF041C03D35
:1073EB00F012003D6E83CF3CF0000E956E000E3711
:1073FB006E220E366E000E396E000E386ED9EC3ED4
:10740B00F03D38F00B836E000E376E210E366E009A
:10741B000E396E010E386ED9EC3EF0000E376E2130
:10742B000E366E000E396E000E386ED9EC3EF03C07
:10743B00C083FF020E3D18D8B426EF3AF028EF3A7E
:10744B00F030EF3AF03D04D8A42EEF3AF030EF3A9B
:10745B00F034EF3AF0A3EC38F036EF3AF097EC3823
:10746B00F012003D6E83CF3CF0000E956E000E3790
:10747B006E220E366E000E396E010E386ED9EC3E52
:10748B00F03DC083FF000E376E210E366E000E39B5
:10749B006E010E386ED9EC3EF0000E376E210E36B3
:1074AB006E000E396E000E386ED9EC3EF03D38F0A2
:1074BB000B836E000E376E210E366E000E396E0189
:1074CB000E386ED9EC3EF0000E376E210E366E0084
:1074DB000E396E000E386ED9EC3EF03CC083FF9730
:1074EB00EC38F0120020EE10F010EE3EF00C0EDB3C
:1074FB00CFE3FFE806FCE2000EF7EC39F0010EF7E4
:10750B00EC39F0080EF7EC39F0000EF7EC39F0001F
:10751B000E4B6E3E0E4B24D96EDA6A000EDA22DF6A
:10752B005037EC3AF04B2A0C0E4B649FEF3AF0A11C
:10753B00EF3AF08FEF3AF00F0E9316F00E81120C1C
:10754B000EF7EC39F0000EF7EC39F0000E4B6EFF36
:10755B000E37EC3AF0320E10EC39F04B2A0F0E4B83
:10756B0064BAEF3AF0BCEF3AF0ADEF3AF0000E81AF
:10757B006E1200000E376E220E366E000E396E0044
:10758B000E386EB2EC3DF0000E376E210E366E00EB
:10759B000E396E000E386EB2EC3DF0000E956EA3F8
:1075AB00EC38F0A3EC38F0A3EC38F0A3EC38F0A3F4
:1075BB00EC38F0030EF7EC39F0A3EC38F0A3EC3811
:1075CB00F0030EF7EC39F0A3EC38F0030EF7EC39BF
:1075DB00F0020EF7EC39F0020EF7EC39F0080EF76B
:1075EB00EC39F0000EF7EC39F0060EF7EC39F00041
:1075FB000EF7EC39F00C0EF7EC39F0000EF7EC3916
:10760B00F0010EF7EC39F01200576E20EE27F01058
:10761B00EE4DF0090EDBCFE3FFE806FCE220EE01B6
:10762B00F010EE3EF00E0EDBCFE3FFE806FCE200BF
:10763B000EF7EC39F0010EF7EC39F0080EF7EC39D8
:10764B00F0000EF7EC39F05750D8B42FEF3BF03178
:10765B00EF3BF036EF3BF07E0E37EC3AF039EF3B79
:10766B00F0200E37EC3AF0000E586E4D0E5824D920
:10767B006EDA6A000EDA22DF5037EC3AF0582A0A3B
:10768B000E58644BEF3BF04DEF3BF03BEF3BF00CF8
:10769B000EF7EC39F0000EF7EC39F05750D8A4592F
:1076AB00EF3BF05BEF3BF060EF3BF07E0E37EC3ADD
:1076BB00F063EF3BF0200E37EC3AF0000E586E3EC5
:1076CB000E5824D96EDA6A000EDA22DF5037EC3A04
:1076DB00F0582A0E0E586475EF3BF077EF3BF065D0
:1076EB00EF3BF01200010E5B6E000E5A6E000E594E
:1076FB006E000E936E000E956E000E816E000E8363
:10770B006EC4EC38F0BFEC3AF08DEC38F0010E0A99
:10771B00EC3BF015EC3CF092EC38F0595036180974
:10772B00E15A503718D8B49DEF3BF09FEF3BF08FE9
:10773B00EF3BF092EC38F036C059F037C05AF0807E
:10774B000E59185A10D8A4ADEF3BF0AFEF3BF0BD7C
:10775B00EF3BF05B50D8B4B5EF3BF0B8EF3BF0012B
:10776B000EB9EF3BF0000E5B6E5B505DEC39F040F9
:10777B000E59185A10D8A4C5EF3BF0C7EF3BF0DBFE
:10778B00EF3BF05B50D8B4CDEF3BF0CFEF3BF0D6F7
:10779B00EF3BF078EC3AF05B500AEC3BF0DBEF3B65
:1077AB00F0D2EC3CF05B500AEC3BF0200E59185A2F
:1077BB0010D8A4E3EF3BF0E5EF3BF0F3EF3BF05BCE
:1077CB0050D8B4EBEF3BF0EEEF3BF0010EEFEF3B9D
:1077DB00F0000E5B6E5B505DEC39F0040E5A1859DD
:1077EB0010D8A4FBEF3BF0FDEF3BF08FEF3BF05BD2
:1077FB0050D8B403EF3CF005EF3CF00CEF3CF078C5
:10780B00EC3AF05B500AEC3BF08FEF3BF0D2EC3CE8
:10781B00F05B500AEC3BF08FEF3BF000EF00F08396
:10782B00CF3BF00F0E9512000E3F6EF80E93163FE6
:10783B00C036F0010E376E362A26EF3CF0D8903763
:10784B0036362E24EF3CF037509312070E81123F41
:10785B00C036F0010E376E362A36EF3CF0D8903733
:10786B0036362E34EF3CF03750FF0A8116000E3DB2
:10787B006E000E3C6E3C4A3D2A3DBE4EEF3CF03D49
:10788B005009E10A0E3C5CD8A04EEF3CF050EF3CA7
:10789B00F040EF3CF0000E3E6E3EC036F0010E376E
:1078AB006E362A5BEF3CF0D8903736362E59EF3CCC
:1078BB00F0375083140009D8A466EF3CF068EF3C16
:1078CB00F080EF3CF03F50040DF3503E24366E0138
:1078DB000E376E000E386E362A77EF3CF0D89037A5
:1078EB00363836362E74EF3CF037505E1238505F18
:1078FB00129AEF3CF03F50040DF3503E24366E01CC
:10790B000E376E000E386E362A8FEF3CF0D890375C
:10791B00363836362E8CEF3CF0371C396E381C3A25
:10792B006E39505E163A505F163E2A030E3E64A126
:10793B00EF3CF0A3EF3CF052EF3CF03F2A020E3F3E
:10794B0064AAEF3CF0ACEF3CF01BEF3CF05E505CFC
:10795B001807E15F505D18D8A4B6EF3CF0B8EF3CC8
:10796B00F0BBEF3CF06206C1EF3CF00A0E626E5EBC
:10797B00C05CF05FC05DF06250D8A4C7EF3CF0C9AB
:10798B00EF3CF0CDEF3CF05CC060F05DC061F03BD4
:10799B00C083FF000E956E1200000E536E000E5248
:1079AB006E20EE1DF010EE43F0090EDBCFE3FFE887
:1079BB0006FCE220EE31F010EE4DF0040EDBCFE3CF
:1079CB00FFE806FCE2000EF7EC39F0010EF7EC399C
:1079DB00F0080EF7EC39F0000EF7EC39F0000E560C
:1079EB006E430E5624D96EDA6A000EDA22DF503758
:1079FB00EC3AF0562A090E566406EF3DF008EF3DBF
:107A0B00F0F6EF3CF00C0EF7EC39F0000EF7EC391A
:107A1B00F07F0E37EC3AF0000E566E4D0E5624D911
:107A2B006EDA6A000EDA22DF5037EC3AF0562A048F
:107A3B000E566423EF3DF025EF3DF013EF3DF008BC
:107A4B000EF7EC39F00B0EF7EC39F015EC3CF000BF
:107A5B000E376E000E366E35EC39F036C054F037FB
:107A6B00C055F054C036F055C037F0000E396E21BA
:107A7B000E386EB1EC38F036C03CF037C03DF0003C
:107A8B000E3F6E640E3E6EBDEC39F03CC054F03DC3
:107A9B00C055F0030E396EE80E386E54C036F055F3
:107AAB00C037F08BEC39F036C03CF037C03DF000FE
:107ABB000E3F6E640E3E6EBDEC39F03C50300F370E
:107ACB00EC3AF02C0E37EC3AF0000E396E640E38AF
:107ADB006E54C036F055C037F08BEC39F036C03CE5
:107AEB00F037C03DF0000E3F6E0A0E3E6EBDEC3916
:107AFB00F03C50300F37EC3AF054C036F055C037ED
:107B0B00F0000E396E0A0E386E8BEC39F0365030B1
:107B1B000F37EC3AF0560E37EC3AF092EC38F05255
:107B2B0050361809E153503718D8B49FEF3DF0A1E8
:107B3B00EF3DF025EF3DF092EC38F036C052F037C8
:107B4B00C053F0040E52185310D8A4AFEF3DF0B150
:107B5B00EF3DF025EF3DF0120037BEC0EF3DF037A3
:107B6B005007E1080E365CD8B0BEEF3DF0C0EF3DDC
:107B7B00F0EAEF3DF038503910D8B4C7EF3DF0C9FB
:107B8B00EF3DF0D9EF3DF036C03AF0010E3B6E3AC7
:107B9B002AD2EF3DF0D8903B363A2ED0EF3DF03B5A
:107BAB00509212D8EF3EF036C03AF0010E3B6E3ACF
:107BBB002AE2EF3DF0D8903B363A2EE0EF3DF03B1A
:107BCB0050FF0A9216D8EF3EF037BEF8EF3DF03774
:107BDB005007E1100E365CD8B0F6EF3DF0F8EF3DF4
:107BEB00F026EF3EF038503910D8B4FFEF3DF001DE
:107BFB00EF3EF013EF3EF036C03AF0F80E3A2601A6
:107C0B000E3B6E3A2A0CEF3EF0D8903B363A2E0ADA
:107C1B00EF3EF03B509312D8EF3EF036C03AF0F8FF
:107C2B000E3A26010E3B6E3A2A1EEF3EF0D8903BE1
:107C3B00363A2E1CEF3EF03B50FF0A9316D8EF3E20
:107C4B00F037BE34EF3EF0375007E1180E365CD8F4
:107C5B00B032EF3EF034EF3EF062EF3EF038503989
:107C6B0010D8B43BEF3EF03DEF3EF04FEF3EF03619
:107C7B00C03AF0F00E3A26010E3B6E3A2A48EF3E20
:107C8B00F0D8903B363A2E46EF3EF03B509412D84C
:107C9B00EF3EF036C03AF0F00E3A26010E3B6E3A4C
:107CAB002A5AEF3EF0D8903B363A2E58EF3EF03B37
:107CBB0050FF0A9416D8EF3EF037BE70EF3EF03708
:107CCB005007E1200E365CD8B06EEF3EF070EF3E01
:107CDB00F09EEF3EF038503910D8B477EF3EF07984
:107CEB00EF3EF08BEF3EF036C03AF0E80E3A26014D
:107CFB000E3B6E3A2A84EF3EF0D8903B363A2E82FA
:107D0B00EF3EF03B509512D8EF3EF036C03AF0E81C
:107D1B000E3A26010E3B6E3A2A96EF3EF0D8903B78
:107D2B00363A2E94EF3EF03B50FF0A9516D8EF3EB5
:107D3B00F037BEACEF3EF0375007E1280E365CD87B
:107D4B00B0AAEF3EF0ACEF3EF0D8EF3EF038503932
:107D5B0010D8B4B3EF3EF0B5EF3EF0C7EF3EF036C0
:107D6B00C03AF0E00E3A26010E3B6E3A2AC0EF3EC7
:107D7B00F0D8903B363A2EBEEF3EF03B509612D8E1
:107D8B00EF3EF036C03AF0E00E3A26010E3B6E3A6B
:107D9B002AD2EF3EF0D8903B363A2ED0EF3EF03B56
:107DAB0050FF0A9616120037BEE7EF3EF03750072A
:107DBB00E1080E365CD8B0E5EF3EF0E7EF3EF01190
:107DCB00EF3FF038503910D8B4EEEF3EF0F0EF3E05
:107DDB00F000EF3FF036C03AF0010E3B6E3A2AF955
:107DEB00EF3EF0D8903B363A2EF7EF3EF03B50800B
:107DFB0012FFEF3FF036C03AF0010E3B6E3A2A0904
:107E0B00EF3FF0D8903B363A2E07EF3FF03B50FF59
:107E1B000A8016FFEF3FF037BE1FEF3FF0375007DA
:107E2B00E1100E365CD8B01DEF3FF01FEF3FF04D69
:107E3B00EF3FF0F80E3626FF0E372238503910D8A8
:107E4B00B42AEF3FF02CEF3FF03CEF3FF036C03A57
:107E5B00F0010E3B6E3A2A35EF3FF0D8903B363AA5
:107E6B002E33EF3FF03B508112FFEF3FF036C03A1D
:107E7B00F0010E3B6E3A2A45EF3FF0D8903B363A75
:107E8B002E43EF3FF03B50FF0A8116FFEF3FF037D9
:107E9B00BE5BEF3FF0375007E1180E365CD8B05998
:107EAB00EF3FF05BEF3FF089EF3FF0F00E3626FF30
:107EBB000E372238503910D8B466EF3FF068EF3FD9
:107ECB00F078EF3FF036C03AF0010E3B6E3A2A7174
:107EDB00EF3FF0D8903B363A2E6FEF3FF03B50829E
:107EEB0012FFEF3FF036C03AF0010E3B6E3A2A819B
:107EFB00EF3FF0D8903B363A2E7FEF3FF03B50FFF1
:107F0B000A8216FFEF3FF037BE97EF3FF03750076F
:107F1B00E1200E365CD8B095EF3FF097EF3FF0C500
:107F2B00EF3FF0E80E3626FF0E372238503910D8C7
:107F3B00B4A2EF3FF0A4EF3FF0B4EF3FF036C03AFE
:107F4B00F0010E3B6E3A2AADEF3FF0D8903B363A3C
:107F5B002EABEF3FF03B508312FFEF3FF036C03AB2
:107F6B00F0010E3B6E3A2ABDEF3FF0D8903B363A0C
:107F7B002EBBEF3FF03B50FF0A8316FFEF3FF0376E
:107F8B00BED3EF3FF0375007E1280E365CD8B0D1A7
:107F9B00EF3FF0D3EF3FF0FFEF3FF0E00E3626FF61
:107FAB000E372238503910D8B4DEEF3FF0E0EF3FF8
:107FBB00F0F0EF3FF036C03AF0010E3B6E3A2AE993
:107FCB00EF3FF0D8903B363A2EE7EF3FF03B508433
:107FDB0012FFEF3FF036C03AF0010E3B6E3A2AF932
:107FEB00EF3FF0D8903B363A2EF7EF3FF03B50FF88
:057FFB000A84161200CB
:020000040020DA
:08000000FFFFFFFFFFFFFFFF00
:020000040030CA
:0E000000FF071F1FFF8385FF0FC00FE00F409B
:00000001FF
